{
  "_format": "hh-sol-artifact-1",
  "contractName": "NFTMarketplace",
  "sourceName": "contracts/NFTMarketplace.sol",
  "abi": [
    {
      "inputs": [],
      "stateMutability": "nonpayable",
      "type": "constructor"
    },
    {
      "anonymous": false,
      "inputs": [
        {
          "indexed": true,
          "internalType": "address",
          "name": "owner",
          "type": "address"
        },
        {
          "indexed": true,
          "internalType": "address",
          "name": "approved",
          "type": "address"
        },
        {
          "indexed": true,
          "internalType": "uint256",
          "name": "tokenId",
          "type": "uint256"
        }
      ],
      "name": "Approval",
      "type": "event"
    },
    {
      "anonymous": false,
      "inputs": [
        {
          "indexed": true,
          "internalType": "address",
          "name": "owner",
          "type": "address"
        },
        {
          "indexed": true,
          "internalType": "address",
          "name": "operator",
          "type": "address"
        },
        {
          "indexed": false,
          "internalType": "bool",
          "name": "approved",
          "type": "bool"
        }
      ],
      "name": "ApprovalForAll",
      "type": "event"
    },
    {
      "anonymous": false,
      "inputs": [
        {
          "indexed": true,
          "internalType": "uint256",
          "name": "tokenId",
          "type": "uint256"
        },
        {
          "indexed": false,
          "internalType": "address",
          "name": "winner",
          "type": "address"
        },
        {
          "indexed": false,
          "internalType": "uint256",
          "name": "amount",
          "type": "uint256"
        }
      ],
      "name": "AuctionEnded",
      "type": "event"
    },
    {
      "anonymous": false,
      "inputs": [
        {
          "indexed": true,
          "internalType": "uint256",
          "name": "tokenId",
          "type": "uint256"
        },
        {
          "indexed": false,
          "internalType": "address",
          "name": "seller",
          "type": "address"
        },
        {
          "indexed": false,
          "internalType": "uint256",
          "name": "startPrice",
          "type": "uint256"
        },
        {
          "indexed": false,
          "internalType": "uint256",
          "name": "endTime",
          "type": "uint256"
        }
      ],
      "name": "AuctionStarted",
      "type": "event"
    },
    {
      "anonymous": false,
      "inputs": [
        {
          "indexed": true,
          "internalType": "uint256",
          "name": "tokenId",
          "type": "uint256"
        },
        {
          "indexed": false,
          "internalType": "address",
          "name": "bidder",
          "type": "address"
        },
        {
          "indexed": false,
          "internalType": "uint256",
          "name": "amount",
          "type": "uint256"
        }
      ],
      "name": "BidPlaced",
      "type": "event"
    },
    {
      "anonymous": false,
      "inputs": [
        {
          "indexed": true,
          "internalType": "uint256",
          "name": "tokenId",
          "type": "uint256"
        },
        {
          "indexed": false,
          "internalType": "address",
          "name": "seller",
          "type": "address"
        },
        {
          "indexed": false,
          "internalType": "address",
          "name": "owner",
          "type": "address"
        },
        {
          "indexed": false,
          "internalType": "uint256",
          "name": "price",
          "type": "uint256"
        },
        {
          "indexed": false,
          "internalType": "bool",
          "name": "sold",
          "type": "bool"
        },
        {
          "indexed": false,
          "internalType": "string",
          "name": "category",
          "type": "string"
        },
        {
          "indexed": false,
          "internalType": "bool",
          "name": "isAuction",
          "type": "bool"
        }
      ],
      "name": "MarketItemCreated",
      "type": "event"
    },
    {
      "anonymous": false,
      "inputs": [
        {
          "indexed": true,
          "internalType": "uint256",
          "name": "tokenId",
          "type": "uint256"
        },
        {
          "indexed": false,
          "internalType": "address",
          "name": "seller",
          "type": "address"
        },
        {
          "indexed": false,
          "internalType": "address",
          "name": "buyer",
          "type": "address"
        },
        {
          "indexed": false,
          "internalType": "uint256",
          "name": "price",
          "type": "uint256"
        }
      ],
      "name": "MarketItemSold",
      "type": "event"
    },
    {
      "anonymous": false,
      "inputs": [
        {
          "indexed": true,
          "internalType": "address",
          "name": "previousOwner",
          "type": "address"
        },
        {
          "indexed": true,
          "internalType": "address",
          "name": "newOwner",
          "type": "address"
        }
      ],
      "name": "OwnershipTransferred",
      "type": "event"
    },
    {
      "anonymous": false,
      "inputs": [
        {
          "indexed": true,
          "internalType": "address",
          "name": "from",
          "type": "address"
        },
        {
          "indexed": true,
          "internalType": "address",
          "name": "to",
          "type": "address"
        },
        {
          "indexed": true,
          "internalType": "uint256",
          "name": "tokenId",
          "type": "uint256"
        }
      ],
      "name": "Transfer",
      "type": "event"
    },
    {
      "inputs": [
        {
          "internalType": "address",
          "name": "to",
          "type": "address"
        },
        {
          "internalType": "uint256",
          "name": "tokenId",
          "type": "uint256"
        }
      ],
      "name": "approve",
      "outputs": [],
      "stateMutability": "nonpayable",
      "type": "function"
    },
    {
      "inputs": [
        {
          "internalType": "uint256",
          "name": "",
          "type": "uint256"
        },
        {
          "internalType": "address",
          "name": "",
          "type": "address"
        }
      ],
      "name": "auctionBids",
      "outputs": [
        {
          "internalType": "uint256",
          "name": "",
          "type": "uint256"
        }
      ],
      "stateMutability": "view",
      "type": "function"
    },
    {
      "inputs": [
        {
          "internalType": "address",
          "name": "owner",
          "type": "address"
        }
      ],
      "name": "balanceOf",
      "outputs": [
        {
          "internalType": "uint256",
          "name": "",
          "type": "uint256"
        }
      ],
      "stateMutability": "view",
      "type": "function"
    },
    {
      "inputs": [
        {
          "internalType": "uint256",
          "name": "tokenId",
          "type": "uint256"
        }
      ],
      "name": "cancelListing",
      "outputs": [],
      "stateMutability": "nonpayable",
      "type": "function"
    },
    {
      "inputs": [
        {
          "internalType": "uint256",
          "name": "tokenId",
          "type": "uint256"
        }
      ],
      "name": "createMarketSale",
      "outputs": [],
      "stateMutability": "payable",
      "type": "function"
    },
    {
      "inputs": [
        {
          "internalType": "uint256",
          "name": "tokenId",
          "type": "uint256"
        }
      ],
      "name": "endAuction",
      "outputs": [],
      "stateMutability": "nonpayable",
      "type": "function"
    },
    {
      "inputs": [],
      "name": "fetchItemsListed",
      "outputs": [
        {
          "components": [
            {
              "internalType": "uint256",
              "name": "tokenId",
              "type": "uint256"
            },
            {
              "internalType": "address payable",
              "name": "seller",
              "type": "address"
            },
            {
              "internalType": "address payable",
              "name": "owner",
              "type": "address"
            },
            {
              "internalType": "uint256",
              "name": "price",
              "type": "uint256"
            },
            {
              "internalType": "bool",
              "name": "sold",
              "type": "bool"
            },
            {
              "internalType": "string",
              "name": "category",
              "type": "string"
            },
            {
              "internalType": "uint256",
              "name": "createdAt",
              "type": "uint256"
            },
            {
              "internalType": "bool",
              "name": "isAuction",
              "type": "bool"
            },
            {
              "internalType": "uint256",
              "name": "endTime",
              "type": "uint256"
            },
            {
              "internalType": "uint256",
              "name": "highestBid",
              "type": "uint256"
            },
            {
              "internalType": "address payable",
              "name": "highestBidder",
              "type": "address"
            },
            {
              "internalType": "address payable",
              "name": "creator",
              "type": "address"
            }
          ],
          "internalType": "struct NFTMarketplace.MarketItem[]",
          "name": "",
          "type": "tuple[]"
        }
      ],
      "stateMutability": "view",
      "type": "function"
    },
    {
      "inputs": [],
      "name": "fetchMarketItems",
      "outputs": [
        {
          "components": [
            {
              "internalType": "uint256",
              "name": "tokenId",
              "type": "uint256"
            },
            {
              "internalType": "address payable",
              "name": "seller",
              "type": "address"
            },
            {
              "internalType": "address payable",
              "name": "owner",
              "type": "address"
            },
            {
              "internalType": "uint256",
              "name": "price",
              "type": "uint256"
            },
            {
              "internalType": "bool",
              "name": "sold",
              "type": "bool"
            },
            {
              "internalType": "string",
              "name": "category",
              "type": "string"
            },
            {
              "internalType": "uint256",
              "name": "createdAt",
              "type": "uint256"
            },
            {
              "internalType": "bool",
              "name": "isAuction",
              "type": "bool"
            },
            {
              "internalType": "uint256",
              "name": "endTime",
              "type": "uint256"
            },
            {
              "internalType": "uint256",
              "name": "highestBid",
              "type": "uint256"
            },
            {
              "internalType": "address payable",
              "name": "highestBidder",
              "type": "address"
            },
            {
              "internalType": "address payable",
              "name": "creator",
              "type": "address"
            }
          ],
          "internalType": "struct NFTMarketplace.MarketItem[]",
          "name": "",
          "type": "tuple[]"
        }
      ],
      "stateMutability": "view",
      "type": "function"
    },
    {
      "inputs": [],
      "name": "fetchMyNFTs",
      "outputs": [
        {
          "components": [
            {
              "internalType": "uint256",
              "name": "tokenId",
              "type": "uint256"
            },
            {
              "internalType": "address payable",
              "name": "seller",
              "type": "address"
            },
            {
              "internalType": "address payable",
              "name": "owner",
              "type": "address"
            },
            {
              "internalType": "uint256",
              "name": "price",
              "type": "uint256"
            },
            {
              "internalType": "bool",
              "name": "sold",
              "type": "bool"
            },
            {
              "internalType": "string",
              "name": "category",
              "type": "string"
            },
            {
              "internalType": "uint256",
              "name": "createdAt",
              "type": "uint256"
            },
            {
              "internalType": "bool",
              "name": "isAuction",
              "type": "bool"
            },
            {
              "internalType": "uint256",
              "name": "endTime",
              "type": "uint256"
            },
            {
              "internalType": "uint256",
              "name": "highestBid",
              "type": "uint256"
            },
            {
              "internalType": "address payable",
              "name": "highestBidder",
              "type": "address"
            },
            {
              "internalType": "address payable",
              "name": "creator",
              "type": "address"
            }
          ],
          "internalType": "struct NFTMarketplace.MarketItem[]",
          "name": "",
          "type": "tuple[]"
        }
      ],
      "stateMutability": "view",
      "type": "function"
    },
    {
      "inputs": [
        {
          "internalType": "uint256",
          "name": "tokenId",
          "type": "uint256"
        }
      ],
      "name": "getApproved",
      "outputs": [
        {
          "internalType": "address",
          "name": "",
          "type": "address"
        }
      ],
      "stateMutability": "view",
      "type": "function"
    },
    {
      "inputs": [],
      "name": "getListingPrice",
      "outputs": [
        {
          "internalType": "uint256",
          "name": "",
          "type": "uint256"
        }
      ],
      "stateMutability": "view",
      "type": "function"
    },
    {
      "inputs": [
        {
          "internalType": "address",
          "name": "owner",
          "type": "address"
        },
        {
          "internalType": "address",
          "name": "operator",
          "type": "address"
        }
      ],
      "name": "isApprovedForAll",
      "outputs": [
        {
          "internalType": "bool",
          "name": "",
          "type": "bool"
        }
      ],
      "stateMutability": "view",
      "type": "function"
    },
    {
      "inputs": [
        {
          "internalType": "uint256",
          "name": "tokenId",
          "type": "uint256"
        },
        {
          "internalType": "uint256",
          "name": "price",
          "type": "uint256"
        },
        {
          "internalType": "string",
          "name": "category",
          "type": "string"
        }
      ],
      "name": "listForSale",
      "outputs": [],
      "stateMutability": "payable",
      "type": "function"
    },
    {
      "inputs": [],
      "name": "listingPrice",
      "outputs": [
        {
          "internalType": "uint256",
          "name": "",
          "type": "uint256"
        }
      ],
      "stateMutability": "view",
      "type": "function"
    },
    {
      "inputs": [
        {
          "internalType": "string",
          "name": "tokenURI",
          "type": "string"
        }
      ],
      "name": "mint",
      "outputs": [
        {
          "internalType": "uint256",
          "name": "",
          "type": "uint256"
        }
      ],
      "stateMutability": "nonpayable",
      "type": "function"
    },
    {
      "inputs": [],
      "name": "name",
      "outputs": [
        {
          "internalType": "string",
          "name": "",
          "type": "string"
        }
      ],
      "stateMutability": "view",
      "type": "function"
    },
    {
      "inputs": [],
      "name": "owner",
      "outputs": [
        {
          "internalType": "address",
          "name": "",
          "type": "address"
        }
      ],
      "stateMutability": "view",
      "type": "function"
    },
    {
      "inputs": [
        {
          "internalType": "uint256",
          "name": "tokenId",
          "type": "uint256"
        }
      ],
      "name": "ownerOf",
      "outputs": [
        {
          "internalType": "address",
          "name": "",
          "type": "address"
        }
      ],
      "stateMutability": "view",
      "type": "function"
    },
    {
      "inputs": [
        {
          "internalType": "uint256",
          "name": "tokenId",
          "type": "uint256"
        }
      ],
      "name": "placeBid",
      "outputs": [],
      "stateMutability": "payable",
      "type": "function"
    },
    {
      "inputs": [],
      "name": "renounceOwnership",
      "outputs": [],
      "stateMutability": "nonpayable",
      "type": "function"
    },
    {
      "inputs": [],
      "name": "royaltyPercentage",
      "outputs": [
        {
          "internalType": "uint256",
          "name": "",
          "type": "uint256"
        }
      ],
      "stateMutability": "view",
      "type": "function"
    },
    {
      "inputs": [
        {
          "internalType": "address",
          "name": "from",
          "type": "address"
        },
        {
          "internalType": "address",
          "name": "to",
          "type": "address"
        },
        {
          "internalType": "uint256",
          "name": "tokenId",
          "type": "uint256"
        }
      ],
      "name": "safeTransferFrom",
      "outputs": [],
      "stateMutability": "nonpayable",
      "type": "function"
    },
    {
      "inputs": [
        {
          "internalType": "address",
          "name": "from",
          "type": "address"
        },
        {
          "internalType": "address",
          "name": "to",
          "type": "address"
        },
        {
          "internalType": "uint256",
          "name": "tokenId",
          "type": "uint256"
        },
        {
          "internalType": "bytes",
          "name": "data",
          "type": "bytes"
        }
      ],
      "name": "safeTransferFrom",
      "outputs": [],
      "stateMutability": "nonpayable",
      "type": "function"
    },
    {
      "inputs": [
        {
          "internalType": "address",
          "name": "operator",
          "type": "address"
        },
        {
          "internalType": "bool",
          "name": "approved",
          "type": "bool"
        }
      ],
      "name": "setApprovalForAll",
      "outputs": [],
      "stateMutability": "nonpayable",
      "type": "function"
    },
    {
      "inputs": [
        {
          "internalType": "uint256",
          "name": "tokenId",
          "type": "uint256"
        },
        {
          "internalType": "uint256",
          "name": "startPrice",
          "type": "uint256"
        },
        {
          "internalType": "uint256",
          "name": "duration",
          "type": "uint256"
        },
        {
          "internalType": "string",
          "name": "category",
          "type": "string"
        }
      ],
      "name": "startAuction",
      "outputs": [],
      "stateMutability": "payable",
      "type": "function"
    },
    {
      "inputs": [
        {
          "internalType": "bytes4",
          "name": "interfaceId",
          "type": "bytes4"
        }
      ],
      "name": "supportsInterface",
      "outputs": [
        {
          "internalType": "bool",
          "name": "",
          "type": "bool"
        }
      ],
      "stateMutability": "view",
      "type": "function"
    },
    {
      "inputs": [],
      "name": "symbol",
      "outputs": [
        {
          "internalType": "string",
          "name": "",
          "type": "string"
        }
      ],
      "stateMutability": "view",
      "type": "function"
    },
    {
      "inputs": [
        {
          "internalType": "uint256",
          "name": "index",
          "type": "uint256"
        }
      ],
      "name": "tokenByIndex",
      "outputs": [
        {
          "internalType": "uint256",
          "name": "",
          "type": "uint256"
        }
      ],
      "stateMutability": "view",
      "type": "function"
    },
    {
      "inputs": [
        {
          "internalType": "address",
          "name": "owner",
          "type": "address"
        },
        {
          "internalType": "uint256",
          "name": "index",
          "type": "uint256"
        }
      ],
      "name": "tokenOfOwnerByIndex",
      "outputs": [
        {
          "internalType": "uint256",
          "name": "",
          "type": "uint256"
        }
      ],
      "stateMutability": "view",
      "type": "function"
    },
    {
      "inputs": [
        {
          "internalType": "uint256",
          "name": "tokenId",
          "type": "uint256"
        }
      ],
      "name": "tokenURI",
      "outputs": [
        {
          "internalType": "string",
          "name": "",
          "type": "string"
        }
      ],
      "stateMutability": "view",
      "type": "function"
    },
    {
      "inputs": [],
      "name": "totalSupply",
      "outputs": [
        {
          "internalType": "uint256",
          "name": "",
          "type": "uint256"
        }
      ],
      "stateMutability": "view",
      "type": "function"
    },
    {
      "inputs": [
        {
          "internalType": "address",
          "name": "from",
          "type": "address"
        },
        {
          "internalType": "address",
          "name": "to",
          "type": "address"
        },
        {
          "internalType": "uint256",
          "name": "tokenId",
          "type": "uint256"
        }
      ],
      "name": "transferFrom",
      "outputs": [],
      "stateMutability": "nonpayable",
      "type": "function"
    },
    {
      "inputs": [
        {
          "internalType": "address",
          "name": "newOwner",
          "type": "address"
        }
      ],
      "name": "transferOwnership",
      "outputs": [],
      "stateMutability": "nonpayable",
      "type": "function"
    },
    {
      "inputs": [
        {
          "internalType": "uint256",
          "name": "_listingPrice",
          "type": "uint256"
        }
      ],
      "name": "updateListingPrice",
      "outputs": [],
      "stateMutability": "nonpayable",
      "type": "function"
    },
    {
      "inputs": [],
      "name": "withdraw",
      "outputs": [],
      "stateMutability": "nonpayable",
      "type": "function"
    }
  ],
  "bytecode": "0x60806040526658d15e17628000600e5560fa600f553480156200002157600080fd5b506040518060400160405280600981526020016810dc9bdb9bdcd3919560ba1b8152506040518060400160405280600481526020016310d3919560e21b815250816000908162000072919062000191565b50600162000081828262000191565b50506001600a555062000094336200009a565b6200025d565b600b80546001600160a01b038381166001600160a01b0319831681179093556040519116919082907f8be0079c531659141344cd1fd0a4f28419497f9722a3daafe3b4186f6b6457e090600090a35050565b634e487b7160e01b600052604160045260246000fd5b600181811c908216806200011757607f821691505b6020821081036200013857634e487b7160e01b600052602260045260246000fd5b50919050565b601f8211156200018c57600081815260208120601f850160051c81016020861015620001675750805b601f850160051c820191505b81811015620001885782815560010162000173565b5050505b505050565b81516001600160401b03811115620001ad57620001ad620000ec565b620001c581620001be845462000102565b846200013e565b602080601f831160018114620001fd5760008415620001e45750858301515b600019600386901b1c1916600185901b17855562000188565b600085815260208120601f198616915b828110156200022e578886015182559484019460019091019084016200020d565b50858210156200024d5787850151600019600388901b60f8161c191681555b5050505050600190811b01905550565b61381b806200026d6000396000f3fe6080604052600436106102045760003560e01c80636352211e11610118578063ae677aa3116100a0578063c78f19f91161006f578063c78f19f914610591578063c87b56dd146105a7578063d85d3d27146105c7578063e985e9c5146105e7578063f2fde38b1461063057600080fd5b8063ae677aa31461051e578063b88d4fde1461053e578063b9a2de3a1461055e578063be9af5361461057e57600080fd5b80638a71bb2d116100e75780638a71bb2d146104a25780638da5cb5b146104b857806395d89b41146104d65780639979ef45146104eb578063a22cb465146104fe57600080fd5b80636352211e1461043a578063680ed24f1461045a57806370a082311461046d578063715018a61461048d57600080fd5b8063202e37401161019b578063305a67a81161016a578063305a67a8146103b05780633ccfd60b146103d057806342842e0e146103e557806345f8fa80146104055780634f6ccce71461041a57600080fd5b8063202e37401461034857806323b872dd1461035d5780632a3b145b1461037d5780632f745c591461039057600080fd5b80630f08efe0116101d75780630f08efe0146102ba57806312e85585146102dc5780631504ceed146102fb57806318160ddd1461033357600080fd5b806301ffc9a71461020957806306fdde031461023e578063081812fc14610260578063095ea7b314610298575b600080fd5b34801561021557600080fd5b50610229610224366004612f8a565b610650565b60405190151581526020015b60405180910390f35b34801561024a57600080fd5b50610253610661565b6040516102359190612ff4565b34801561026c57600080fd5b5061028061027b366004613007565b6106f3565b6040516001600160a01b039091168152602001610235565b3480156102a457600080fd5b506102b86102b336600461303c565b61071a565b005b3480156102c657600080fd5b506102cf610834565b6040516102359190613066565b3480156102e857600080fd5b50600e545b604051908152602001610235565b34801561030757600080fd5b506102ed610316366004613171565b601260209081526000928352604080842090915290825290205481565b34801561033f57600080fd5b506008546102ed565b34801561035457600080fd5b506102cf610a97565b34801561036957600080fd5b506102b861037836600461319d565b610d0d565b6102b861038b366004613285565b610d3e565b34801561039c57600080fd5b506102ed6103ab36600461303c565b610ef8565b3480156103bc57600080fd5b506102b86103cb366004613007565b610f8e565b3480156103dc57600080fd5b506102b861115d565b3480156103f157600080fd5b506102b861040036600461319d565b6111b4565b34801561041157600080fd5b506102cf6111cf565b34801561042657600080fd5b506102ed610435366004613007565b61146f565b34801561044657600080fd5b50610280610455366004613007565b611502565b6102b86104683660046132d5565b611562565b34801561047957600080fd5b506102ed61048836600461332f565b6117d5565b34801561049957600080fd5b506102b861185b565b3480156104ae57600080fd5b506102ed600f5481565b3480156104c457600080fd5b50600b546001600160a01b0316610280565b3480156104e257600080fd5b5061025361186f565b6102b86104f9366004613007565b61187e565b34801561050a57600080fd5b506102b861051936600461334a565b611aaf565b34801561052a57600080fd5b506102b8610539366004613007565b611aba565b34801561054a57600080fd5b506102b8610559366004613386565b611ac7565b34801561056a57600080fd5b506102b8610579366004613007565b611af9565b6102b861058c366004613007565b611e25565b34801561059d57600080fd5b506102ed600e5481565b3480156105b357600080fd5b506102536105c2366004613007565b612067565b3480156105d357600080fd5b506102ed6105e23660046133f6565b612163565b3480156105f357600080fd5b5061022961060236600461342b565b6001600160a01b03918216600090815260056020908152604080832093909416825291909152205460ff1690565b34801561063c57600080fd5b506102b861064b36600461332f565b612386565b600061065b826123fc565b92915050565b60606000805461067090613455565b80601f016020809104026020016040519081016040528092919081815260200182805461069c90613455565b80156106e95780601f106106be576101008083540402835291602001916106e9565b820191906000526020600020905b8154815290600101906020018083116106cc57829003601f168201915b5050505050905090565b60006106fe82612421565b506000908152600460205260409020546001600160a01b031690565b600061072582611502565b9050806001600160a01b0316836001600160a01b0316036107975760405162461bcd60e51b815260206004820152602160248201527f4552433732313a20617070726f76616c20746f2063757272656e74206f776e656044820152603960f91b60648201526084015b60405180910390fd5b336001600160a01b03821614806107b357506107b38133610602565b6108255760405162461bcd60e51b815260206004820152603d60248201527f4552433732313a20617070726f76652063616c6c6572206973206e6f7420746f60448201527f6b656e206f776e6572206f7220617070726f76656420666f7220616c6c000000606482015260840161078e565b61082f8383612480565b505050565b60606000610841600c5490565b9050600061084e600d5490565b600c5461085b91906134a5565b90506000808267ffffffffffffffff811115610879576108796131d9565b6040519080825280602002602001820160405280156108b257816020015b61089f612f11565b8152602001906001900390816108975790505b50905060005b84811015610a8e5730601060006108d08460016134b8565b81526020810191909152604001600020600201546001600160a01b031603610a7c5760006108ff8260016134b8565b6000818152601060209081526040918290208251610180810184528154815260018201546001600160a01b039081169382019390935260028201549092169282019290925260038201546060820152600482015460ff161515608082015260058201805493945091929091839160a08401919061097b90613455565b80601f01602080910402602001604051908101604052809291908181526020018280546109a790613455565b80156109f45780601f106109c9576101008083540402835291602001916109f4565b820191906000526020600020905b8154815290600101906020018083116109d757829003601f168201915b505050918352505060068201546020820152600782015460ff16151560408201526008820154606082015260098201546080820152600a8201546001600160a01b0390811660a0830152600b9092015490911660c0909101528451859087908110610a6157610a616134cb565b6020908102919091010152610a776001866134b8565b945050505b80610a86816134e1565b9150506108b8565b50949350505050565b60606000610aa4600c5490565b905060008060005b83811015610afc576000610ac18260016134b8565b905033610acd82611502565b6001600160a01b031603610ae957610ae66001856134b8565b93505b5080610af4816134e1565b915050610aac565b5060008267ffffffffffffffff811115610b1857610b186131d9565b604051908082528060200260200182016040528015610b5157816020015b610b3e612f11565b815260200190600190039081610b365790505b50905060005b84811015610a8e576000610b6c8260016134b8565b905033610b7882611502565b6001600160a01b031603610cfa576000818152601060209081526040918290208251610180810184528154815260018201546001600160a01b039081169382019390935260028201549092169282019290925260038201546060820152600482015460ff1615156080820152600582018054839160a0840191610bfa90613455565b80601f0160208091040260200160405190810160405280929190818152602001828054610c2690613455565b8015610c735780601f10610c4857610100808354040283529160200191610c73565b820191906000526020600020905b815481529060010190602001808311610c5657829003601f168201915b505050918352505060068201546020820152600782015460ff16151560408201526008820154606082015260098201546080820152600a8201546001600160a01b0390811660a0830152600b9092015490911660c0909101528451859087908110610ce057610ce06134cb565b6020908102919091010152610cf66001866134b8565b9450505b5080610d05816134e1565b915050610b57565b610d1733826124ee565b610d335760405162461bcd60e51b815260040161078e906134fa565b61082f83838361256d565b610d466126de565b33610d5084611502565b6001600160a01b031614610d9c5760405162461bcd60e51b815260206004820152601360248201527213db9b1e481bdddb995c8818d85b881b1a5cdd606a1b604482015260640161078e565b60008211610dec5760405162461bcd60e51b815260206004820152601c60248201527f5072696365206d7573742062652067726561746572207468616e203000000000604482015260640161078e565b600e543414610e365760405162461bcd60e51b81526020600482015260166024820152754d75737420706179206c697374696e6720707269636560501b604482015260640161078e565b610e4133308561256d565b60008381526010602052604090206001810180546001600160a01b03199081163317909155600282018054909116301790556003810183905560048101805460ff19169055600501610e938282613595565b50600083815260106020526040808220600701805460ff191690555184917f9f902bdbc50cdace7e56e5df3c78d1c8343cc4f47cab083e3f8791d93f9c893591610ee69133913091889188908290613655565b60405180910390a261082f6001600a55565b6000610f03836117d5565b8210610f655760405162461bcd60e51b815260206004820152602b60248201527f455243373231456e756d657261626c653a206f776e657220696e646578206f7560448201526a74206f6620626f756e647360a81b606482015260840161078e565b506001600160a01b03919091166000908152600660209081526040808320938352929052205490565b610f966126de565b600081815260106020526040902060018101546001600160a01b03163314610ff95760405162461bcd60e51b815260206004820152601660248201527513db9b1e481cd95b1b195c8818d85b8818d85b98d95b60521b604482015260640161078e565b600481015460ff16156110425760405162461bcd60e51b8152602060048201526011602482015270125d195b48185b1c9958591e481cdbdb19607a1b604482015260640161078e565b600781015460ff16156110f757806008015442106110a25760405162461bcd60e51b815260206004820152601b60248201527f43616e6e6f742063616e63656c20656e6465642061756374696f6e0000000000604482015260640161078e565b600a8101546001600160a01b0316156110f757600a81015460098201546040516001600160a01b039092169181156108fc0291906000818181858888f193505050501580156110f5573d6000803e3d6000fd5b505b61110230338461256d565b6002810180546001600160a01b031990811633179091556001820180548216905560006003830181905560078301805460ff19169055600883018190556009830155600a9091018054909116905561115a6001600a55565b50565b611165612737565b47611178600b546001600160a01b031690565b6001600160a01b03166108fc829081150290604051600060405180830381858888f193505050501580156111b0573d6000803e3d6000fd5b5050565b61082f83838360405180602001604052806000815250611ac7565b606060006111dc600c5490565b905060008060005b8381101561123e5733601060006111fc8460016134b8565b81526020810191909152604001600020600101546001600160a01b03160361122c576112296001846134b8565b92505b80611236816134e1565b9150506111e4565b5060008267ffffffffffffffff81111561125a5761125a6131d9565b60405190808252806020026020018201604052801561129357816020015b611280612f11565b8152602001906001900390816112785790505b50905060005b84811015610a8e5733601060006112b18460016134b8565b81526020810191909152604001600020600101546001600160a01b03160361145d5760006112e08260016134b8565b6000818152601060209081526040918290208251610180810184528154815260018201546001600160a01b039081169382019390935260028201549092169282019290925260038201546060820152600482015460ff161515608082015260058201805493945091929091839160a08401919061135c90613455565b80601f016020809104026020016040519081016040528092919081815260200182805461138890613455565b80156113d55780601f106113aa576101008083540402835291602001916113d5565b820191906000526020600020905b8154815290600101906020018083116113b857829003601f168201915b505050918352505060068201546020820152600782015460ff16151560408201526008820154606082015260098201546080820152600a8201546001600160a01b0390811660a0830152600b9092015490911660c0909101528451859087908110611442576114426134cb565b60209081029190910101526114586001866134b8565b945050505b80611467816134e1565b915050611299565b600061147a60085490565b82106114dd5760405162461bcd60e51b815260206004820152602c60248201527f455243373231456e756d657261626c653a20676c6f62616c20696e646578206f60448201526b7574206f6620626f756e647360a01b606482015260840161078e565b600882815481106114f0576114f06134cb565b90600052602060002001549050919050565b6000818152600260205260408120546001600160a01b03168061065b5760405162461bcd60e51b8152602060048201526018602482015277115490cdcc8c4e881a5b9d985b1a59081d1bdad95b88125160421b604482015260640161078e565b61156a6126de565b3361157485611502565b6001600160a01b0316146115ca5760405162461bcd60e51b815260206004820152601c60248201527f4f6e6c79206f776e65722063616e2073746172742061756374696f6e00000000604482015260640161078e565b600083116116255760405162461bcd60e51b815260206004820152602260248201527f5374617274207072696365206d7573742062652067726561746572207468616e604482015261020360f41b606482015260840161078e565b600082116116755760405162461bcd60e51b815260206004820152601f60248201527f4475726174696f6e206d7573742062652067726561746572207468616e203000604482015260640161078e565b600e5434146116bf5760405162461bcd60e51b81526020600482015260166024820152754d75737420706179206c697374696e6720707269636560501b604482015260640161078e565b6116ca33308661256d565b60008481526010602052604090206001810180546001600160a01b03199081163317909155600282018054909116301790556003810184905560048101805460ff1916905560050161171c8282613595565b506000848152601060205260409020600701805460ff1916600117905561174382426134b8565b600085815260106020526040812060088101929092556009820155600a0180546001600160a01b0319169055837fbf6dc7bdf2f23af5a506fe03ee1221f47d023a2227fbc949c6b812ae44534e6d338561179d86426134b8565b604080516001600160a01b03909416845260208401929092529082015260600160405180910390a26117cf6001600a55565b50505050565b60006001600160a01b03821661183f5760405162461bcd60e51b815260206004820152602960248201527f4552433732313a2061646472657373207a65726f206973206e6f7420612076616044820152683634b21037bbb732b960b91b606482015260840161078e565b506001600160a01b031660009081526003602052604090205490565b611863612737565b61186d6000612791565b565b60606001805461067090613455565b6118866126de565b6000818152601060205260409020600781015460ff166118e15760405162461bcd60e51b815260206004820152601660248201527524ba32b69034b9903737ba1037b71030bab1ba34b7b760511b604482015260640161078e565b806008015442106119285760405162461bcd60e51b8152602060048201526011602482015270105d58dd1a5bdb881a185cc8195b991959607a1b604482015260640161078e565b8060090154341161198b5760405162461bcd60e51b815260206004820152602760248201527f426964206d75737420626520686967686572207468616e2063757272656e74206044820152661a1a59da195cdd60ca1b606482015260840161078e565b60018101546001600160a01b031633036119db5760405162461bcd60e51b815260206004820152601160248201527014d95b1b195c8818d85b9b9bdd08189a59607a1b604482015260640161078e565b600a8101546001600160a01b031615611a3057600a81015460098201546040516001600160a01b039092169181156108fc0291906000818181858888f19350505050158015611a2e573d6000803e3d6000fd5b505b3460098201819055600a820180546001600160a01b031916339081179091556000848152601260209081526040808320848452825291829020849055815192835282019290925283917f0e54eff26401bf69b81b26f60bd85ef47f5d85275c1d268d84f68d6897431c47910160405180910390a25061115a6001600a55565b6111b03383836127e3565b611ac2612737565b600e55565b611ad133836124ee565b611aed5760405162461bcd60e51b815260040161078e906134fa565b6117cf848484846128b1565b611b016126de565b6000818152601060205260409020600781015460ff16611b5c5760405162461bcd60e51b815260206004820152601660248201527524ba32b69034b9903737ba1037b71030bab1ba34b7b760511b604482015260640161078e565b8060080154421015611bb05760405162461bcd60e51b815260206004820152601960248201527f41756374696f6e20686173206e6f7420656e6465642079657400000000000000604482015260640161078e565b600481015460ff1615611bfd5760405162461bcd60e51b8152602060048201526015602482015274105d58dd1a5bdb88185b1c9958591e48195b991959605a1b604482015260640161078e565b60048101805460ff19166001179055611c1a600d80546001019055565b600a8101546001600160a01b031615611dd957600a810154611c479030906001600160a01b03168461256d565b600a8101546002820180546001600160a01b0319166001600160a01b03909216919091179055600f54600982015460009161271091611c8691906136a5565b611c9091906136bc565b90506000818360090154611ca491906134a5565b60018401546040519192506001600160a01b03169082156108fc029083906000818181858888f19350505050158015611ce1573d6000803e3d6000fd5b508115611d2657600b8301546040516001600160a01b039091169083156108fc029084906000818181858888f19350505050158015611d24573d6000803e3d6000fd5b505b600a8301546009840154604080516001600160a01b039093168352602083019190915285917fd2aa34a4fdbbc6dff6a3e56f46e0f3ae2a31d7785ff3487aa5c95c642acea501910160405180910390a26001830154600a8401546009850154604080516001600160a01b0394851681529390921660208401529082015284907f150ffca547cf855e7fcf5daa82e41c6523b5fb2c8b1309bbb6cf2f87c6ae5a319060600160405180910390a25050611e1a565b6001810154611df39030906001600160a01b03168461256d565b60018101546002820180546001600160a01b0319166001600160a01b039092169190911790555b5061115a6001600a55565b611e2d6126de565b6000818152601060205260409020600781015460ff1615611e855760405162461bcd60e51b815260206004820152601260248201527124ba32b69034b99037b71030bab1ba34b7b760711b604482015260640161078e565b80600301543414611ed85760405162461bcd60e51b815260206004820152601e60248201527f506c65617365207375626d6974207468652061736b696e672070726963650000604482015260640161078e565b600481015460ff1615611f215760405162461bcd60e51b8152602060048201526011602482015270125d195b48185b1c9958591e481cdbdb19607a1b604482015260640161078e565b60048101805460ff191660011790556002810180546001600160a01b03191633179055611f52600d80546001019055565b611f5d30338461256d565b6000612710600f5434611f7091906136a5565b611f7a91906136bc565b90506000611f8882346134a5565b60018401546040519192506001600160a01b03169082156108fc029083906000818181858888f19350505050158015611fc5573d6000803e3d6000fd5b50811561200a57600b8301546040516001600160a01b039091169083156108fc029084906000818181858888f19350505050158015612008573d6000803e3d6000fd5b505b6001830154604080516001600160a01b039092168252336020830152349082015284907f150ffca547cf855e7fcf5daa82e41c6523b5fb2c8b1309bbb6cf2f87c6ae5a319060600160405180910390a250505061115a6001600a55565b6000818152600260205260409020546060906001600160a01b03166120c55760405162461bcd60e51b8152602060048201526014602482015273151bdad95b88191bd95cc81b9bdd08195e1a5cdd60621b604482015260640161078e565b600082815260116020526040902080546120de90613455565b80601f016020809104026020016040519081016040528092919081815260200182805461210a90613455565b80156121575780601f1061212c57610100808354040283529160200191612157565b820191906000526020600020905b81548152906001019060200180831161213a57829003601f168201915b50505050509050919050565b6000808251116121b55760405162461bcd60e51b815260206004820152601960248201527f546f6b656e205552492063616e6e6f7420626520656d70747900000000000000604482015260640161078e565b6101f4825111156121fd5760405162461bcd60e51b8152602060048201526012602482015271546f6b656e2055524920746f6f206c6f6e6760701b604482015260640161078e565b61220b600c80546001019055565b6000612216600c5490565b905061222233826128e4565b61222c8184612a7d565b60408051610180810182528281526000602080830182815233848601818152606086018581526080870186815288518087018a5287815260a089019081524260c08a015260e089018890526101008901889052610120890188905261014089018890526101608901949094528987526010909552969094208551815591516001830180546001600160a01b03199081166001600160a01b03938416179091559451600284018054909616911617909355935160038501555160048401805460ff191691151591909117905551909190600582019061230a9082613595565b5060c0820151600682015560e082015160078201805460ff191691151591909117905561010082015160088201556101208201516009820155610140820151600a820180546001600160a01b03199081166001600160a01b039384161790915561016090930151600b9092018054909316911617905592915050565b61238e612737565b6001600160a01b0381166123f35760405162461bcd60e51b815260206004820152602660248201527f4f776e61626c653a206e6577206f776e657220697320746865207a65726f206160448201526564647265737360d01b606482015260840161078e565b61115a81612791565b60006001600160e01b0319821663780e9d6360e01b148061065b575061065b82612af0565b6000818152600260205260409020546001600160a01b031661115a5760405162461bcd60e51b8152602060048201526018602482015277115490cdcc8c4e881a5b9d985b1a59081d1bdad95b88125160421b604482015260640161078e565b600081815260046020526040902080546001600160a01b0319166001600160a01b03841690811790915581906124b582611502565b6001600160a01b03167f8c5be1e5ebec7d5bd14f71427d1e84f3dd0314c0f7b2291e5b200ac8c7c3b92560405160405180910390a45050565b6000806124fa83611502565b9050806001600160a01b0316846001600160a01b0316148061254157506001600160a01b0380821660009081526005602090815260408083209388168352929052205460ff165b806125655750836001600160a01b031661255a846106f3565b6001600160a01b0316145b949350505050565b826001600160a01b031661258082611502565b6001600160a01b0316146125a65760405162461bcd60e51b815260040161078e906136de565b6001600160a01b0382166126085760405162461bcd60e51b8152602060048201526024808201527f4552433732313a207472616e7366657220746f20746865207a65726f206164646044820152637265737360e01b606482015260840161078e565b6126158383836001612b40565b826001600160a01b031661262882611502565b6001600160a01b03161461264e5760405162461bcd60e51b815260040161078e906136de565b600081815260046020908152604080832080546001600160a01b03199081169091556001600160a01b0387811680865260038552838620805460001901905590871680865283862080546001019055868652600290945282852080549092168417909155905184937fddf252ad1be2c89b69c2b068fc378daa952ba7f163c4a11628f55a4df523b3ef91a4505050565b6002600a54036127305760405162461bcd60e51b815260206004820152601f60248201527f5265656e7472616e637947756172643a207265656e7472616e742063616c6c00604482015260640161078e565b6002600a55565b600b546001600160a01b0316331461186d5760405162461bcd60e51b815260206004820181905260248201527f4f776e61626c653a2063616c6c6572206973206e6f7420746865206f776e6572604482015260640161078e565b600b80546001600160a01b038381166001600160a01b0319831681179093556040519116919082907f8be0079c531659141344cd1fd0a4f28419497f9722a3daafe3b4186f6b6457e090600090a35050565b816001600160a01b0316836001600160a01b0316036128445760405162461bcd60e51b815260206004820152601960248201527f4552433732313a20617070726f766520746f2063616c6c657200000000000000604482015260640161078e565b6001600160a01b03838116600081815260056020908152604080832094871680845294825291829020805460ff191686151590811790915591519182527f17307eab39ab6107e8899845ad3d59bd9653f200f220920489ca2b5937696c31910160405180910390a3505050565b6128bc84848461256d565b6128c884848484612b4c565b6117cf5760405162461bcd60e51b815260040161078e90613723565b6001600160a01b03821661293a5760405162461bcd60e51b815260206004820181905260248201527f4552433732313a206d696e7420746f20746865207a65726f2061646472657373604482015260640161078e565b6000818152600260205260409020546001600160a01b03161561299f5760405162461bcd60e51b815260206004820152601c60248201527f4552433732313a20746f6b656e20616c7265616479206d696e74656400000000604482015260640161078e565b6129ad600083836001612b40565b6000818152600260205260409020546001600160a01b031615612a125760405162461bcd60e51b815260206004820152601c60248201527f4552433732313a20746f6b656e20616c7265616479206d696e74656400000000604482015260640161078e565b6001600160a01b038216600081815260036020908152604080832080546001019055848352600290915280822080546001600160a01b0319168417905551839291907fddf252ad1be2c89b69c2b068fc378daa952ba7f163c4a11628f55a4df523b3ef908290a45050565b6000828152600260205260409020546001600160a01b0316612ad85760405162461bcd60e51b8152602060048201526014602482015273151bdad95b88191bd95cc81b9bdd08195e1a5cdd60621b604482015260640161078e565b600082815260116020526040902061082f8282613595565b60006001600160e01b031982166380ac58cd60e01b1480612b2157506001600160e01b03198216635b5e139f60e01b145b8061065b57506301ffc9a760e01b6001600160e01b031983161461065b565b6117cf84848484612c4d565b60006001600160a01b0384163b15612c4257604051630a85bd0160e11b81526001600160a01b0385169063150b7a0290612b90903390899088908890600401613775565b6020604051808303816000875af1925050508015612bcb575060408051601f3d908101601f19168201909252612bc8918101906137b2565b60015b612c28573d808015612bf9576040519150601f19603f3d011682016040523d82523d6000602084013e612bfe565b606091505b508051600003612c205760405162461bcd60e51b815260040161078e90613723565b805181602001fd5b6001600160e01b031916630a85bd0160e11b149050612565565b506001949350505050565b6001811115612cbc5760405162461bcd60e51b815260206004820152603560248201527f455243373231456e756d657261626c653a20636f6e7365637574697665207472604482015274185b9cd9995c9cc81b9bdd081cdd5c1c1bdc9d1959605a1b606482015260840161078e565b816001600160a01b038516612d1857612d1381600880546000838152600960205260408120829055600182018355919091527ff3f7a9fe364faab93b216da50a3214154f22a0a2b415b23a84c8169e8b636ee30155565b612d3b565b836001600160a01b0316856001600160a01b031614612d3b57612d3b8582612d81565b6001600160a01b038416612d5757612d5281612e1e565b612d7a565b846001600160a01b0316846001600160a01b031614612d7a57612d7a8482612ecd565b5050505050565b60006001612d8e846117d5565b612d9891906134a5565b600083815260076020526040902054909150808214612deb576001600160a01b03841660009081526006602090815260408083208584528252808320548484528184208190558352600790915290208190555b5060009182526007602090815260408084208490556001600160a01b039094168352600681528383209183525290812055565b600854600090612e30906001906134a5565b60008381526009602052604081205460088054939450909284908110612e5857612e586134cb565b906000526020600020015490508060088381548110612e7957612e796134cb565b6000918252602080832090910192909255828152600990915260408082208490558582528120556008805480612eb157612eb16137cf565b6001900381819060005260206000200160009055905550505050565b6000612ed8836117d5565b6001600160a01b039093166000908152600660209081526040808320868452825280832085905593825260079052919091209190915550565b604080516101808101825260008082526020820181905291810182905260608082018390526080820183905260a082015260c0810182905260e0810182905261010081018290526101208101829052610140810182905261016081019190915290565b6001600160e01b03198116811461115a57600080fd5b600060208284031215612f9c57600080fd5b8135612fa781612f74565b9392505050565b6000815180845260005b81811015612fd457602081850181015186830182015201612fb8565b506000602082860101526020601f19601f83011685010191505092915050565b602081526000612fa76020830184612fae565b60006020828403121561301957600080fd5b5035919050565b80356001600160a01b038116811461303757600080fd5b919050565b6000806040838503121561304f57600080fd5b61305883613020565b946020939093013593505050565b60006020808301818452808551808352604092508286019150828160051b87010184880160005b8381101561316357603f19898403018552815180518452878101516001600160a01b03908116898601528782015116878501526060808201519085015260808082015115159085015260a08082015161018082870181905291906130f383880182612fae565b9250505060c080830151818701525060e0808301516131158288018215159052565b505061010082810151908601526101208083015190860152610140808301516001600160a01b039081169187019190915261016092830151169190940152938601939086019060010161308d565b509098975050505050505050565b6000806040838503121561318457600080fd5b8235915061319460208401613020565b90509250929050565b6000806000606084860312156131b257600080fd5b6131bb84613020565b92506131c960208501613020565b9150604084013590509250925092565b634e487b7160e01b600052604160045260246000fd5b600067ffffffffffffffff8084111561320a5761320a6131d9565b604051601f8501601f19908116603f01168101908282118183101715613232576132326131d9565b8160405280935085815286868601111561324b57600080fd5b858560208301376000602087830101525050509392505050565b600082601f83011261327657600080fd5b612fa7838335602085016131ef565b60008060006060848603121561329a57600080fd5b8335925060208401359150604084013567ffffffffffffffff8111156132bf57600080fd5b6132cb86828701613265565b9150509250925092565b600080600080608085870312156132eb57600080fd5b843593506020850135925060408501359150606085013567ffffffffffffffff81111561331757600080fd5b61332387828801613265565b91505092959194509250565b60006020828403121561334157600080fd5b612fa782613020565b6000806040838503121561335d57600080fd5b61336683613020565b91506020830135801515811461337b57600080fd5b809150509250929050565b6000806000806080858703121561339c57600080fd5b6133a585613020565b93506133b360208601613020565b925060408501359150606085013567ffffffffffffffff8111156133d657600080fd5b8501601f810187136133e757600080fd5b613323878235602084016131ef565b60006020828403121561340857600080fd5b813567ffffffffffffffff81111561341f57600080fd5b61256584828501613265565b6000806040838503121561343e57600080fd5b61344783613020565b915061319460208401613020565b600181811c9082168061346957607f821691505b60208210810361348957634e487b7160e01b600052602260045260246000fd5b50919050565b634e487b7160e01b600052601160045260246000fd5b8181038181111561065b5761065b61348f565b8082018082111561065b5761065b61348f565b634e487b7160e01b600052603260045260246000fd5b6000600182016134f3576134f361348f565b5060010190565b6020808252602d908201527f4552433732313a2063616c6c6572206973206e6f7420746f6b656e206f776e6560408201526c1c881bdc88185c1c1c9bdd9959609a1b606082015260800190565b601f82111561082f57600081815260208120601f850160051c8101602086101561356e5750805b601f850160051c820191505b8181101561358d5782815560010161357a565b505050505050565b815167ffffffffffffffff8111156135af576135af6131d9565b6135c3816135bd8454613455565b84613547565b602080601f8311600181146135f857600084156135e05750858301515b600019600386901b1c1916600185901b17855561358d565b600085815260208120601f198616915b8281101561362757888601518255948401946001909101908401613608565b50858210156136455787850151600019600388901b60f8161c191681555b5050505050600190811b01905550565b6001600160a01b0387811682528616602082015260408101859052831515606082015260c06080820181905260009061369090830185612fae565b905082151560a0830152979650505050505050565b808202811582820484141761065b5761065b61348f565b6000826136d957634e487b7160e01b600052601260045260246000fd5b500490565b60208082526025908201527f4552433732313a207472616e736665722066726f6d20696e636f72726563742060408201526437bbb732b960d91b606082015260800190565b60208082526032908201527f4552433732313a207472616e7366657220746f206e6f6e20455243373231526560408201527131b2b4bb32b91034b6b83632b6b2b73a32b960711b606082015260800190565b6001600160a01b03858116825284166020820152604081018390526080606082018190526000906137a890830184612fae565b9695505050505050565b6000602082840312156137c457600080fd5b8151612fa781612f74565b634e487b7160e01b600052603160045260246000fdfea26469706673582212205892142b191fdf7645322b3f2846ff1ceb00c0b101181bb63cbf15891d08345b64736f6c63430008130033",
  "linkReferences": {},
  "deployedLinkReferences": {}
}